{
    "contractName": "Election",
    "abi": [
        {
            "inputs": [
                {
                    "internalType": "string",
                    "name": "_electionName",
                    "type": "string"
                }
            ],
            "stateMutability": "nonpayable",
            "type": "constructor"
        },
        {
            "inputs": [
                {
                    "internalType": "uint256",
                    "name": "",
                    "type": "uint256"
                }
            ],
            "name": "candidates",
            "outputs": [
                {
                    "internalType": "string",
                    "name": "name",
                    "type": "string"
                },
                {
                    "internalType": "uint256",
                    "name": "voteCount",
                    "type": "uint256"
                },
                {
                    "internalType": "string",
                    "name": "partyName",
                    "type": "string"
                },
                {
                    "internalType": "string",
                    "name": "Constituency",
                    "type": "string"
                }
            ],
            "stateMutability": "view",
            "type": "function",
            "constant": true
        },
        {
            "inputs": [],
            "name": "electionName",
            "outputs": [
                {
                    "internalType": "string",
                    "name": "",
                    "type": "string"
                }
            ],
            "stateMutability": "view",
            "type": "function",
            "constant": true
        },
        {
            "inputs": [
                {
                    "internalType": "address",
                    "name": "",
                    "type": "address"
                }
            ],
            "name": "voters",
            "outputs": [
                {
                    "internalType": "bool",
                    "name": "isAuthorized",
                    "type": "bool"
                },
                {
                    "internalType": "bool",
                    "name": "voted",
                    "type": "bool"
                },
                {
                    "internalType": "uint256",
                    "name": "vote",
                    "type": "uint256"
                }
            ],
            "stateMutability": "view",
            "type": "function",
            "constant": true
        },
        {
            "inputs": [],
            "name": "winnerCandidate",
            "outputs": [
                {
                    "internalType": "uint256",
                    "name": "",
                    "type": "uint256"
                }
            ],
            "stateMutability": "view",
            "type": "function",
            "constant": true
        },
        {
            "inputs": [
                {
                    "internalType": "string",
                    "name": "_name",
                    "type": "string"
                },
                {
                    "internalType": "string",
                    "name": "_partyName",
                    "type": "string"
                },
                {
                    "internalType": "string",
                    "name": "_constituency",
                    "type": "string"
                }
            ],
            "name": "addCandidate",
            "outputs": [],
            "stateMutability": "nonpayable",
            "type": "function"
        },
        {
            "inputs": [],
            "name": "getNumCandidate",
            "outputs": [
                {
                    "internalType": "uint256",
                    "name": "",
                    "type": "uint256"
                }
            ],
            "stateMutability": "view",
            "type": "function",
            "constant": true
        },
        {
            "inputs": [
                {
                    "internalType": "address",
                    "name": "_voter",
                    "type": "address"
                }
            ],
            "name": "authorize",
            "outputs": [],
            "stateMutability": "nonpayable",
            "type": "function"
        },
        {
            "inputs": [
                {
                    "internalType": "uint256",
                    "name": "_candidateIndex",
                    "type": "uint256"
                }
            ],
            "name": "vote",
            "outputs": [],
            "stateMutability": "nonpayable",
            "type": "function"
        },
        {
            "inputs": [],
            "name": "getWinner",
            "outputs": [
                {
                    "internalType": "uint256",
                    "name": "",
                    "type": "uint256"
                }
            ],
            "stateMutability": "nonpayable",
            "type": "function"
        },
        {
            "inputs": [],
            "name": "end",
            "outputs": [],
            "stateMutability": "nonpayable",
            "type": "function"
        }
    ],
    "bytecode": "0x60806040523480156200001157600080fd5b506040516200103438038062001034833981810160405260208110156200003757600080fd5b81019080805160405193929190846401000000008211156200005857600080fd5b838201915060208201858111156200006f57600080fd5b82518660018202830111640100000000821117156200008d57600080fd5b8083526020830192505050908051906020019080838360005b83811015620000c3578082015181840152602081019050620000a6565b50505050905090810190601f168015620000f15780820380516001836020036101000a031916815260200191505b50604052505050336000806101000a81548173ffffffffffffffffffffffffffffffffffffffff021916908373ffffffffffffffffffffffffffffffffffffffff16021790555080600190805190602001906200015092919062000158565b50506200020e565b828054600181600116156101000203166002900490600052602060002090601f016020900481019282620001905760008555620001dc565b82601f10620001ab57805160ff1916838001178555620001dc565b82800160010185558215620001dc579182015b82811115620001db578251825591602001919060010190620001be565b5b509050620001eb9190620001ef565b5090565b5b808211156200020a576000816000905550600101620001f0565b5090565b610e16806200021e6000396000f3fe608060405234801561001057600080fd5b506004361061009e5760003560e01c8063a3ec138d11610066578063a3ec138d14610316578063ad71f8dc14610380578063b6a5d7de14610569578063d02cf3cf146105ad578063efbe1c1c146105cb5761009e565b80630121b93f146100a35780633477ee2e146100d157806385e8e7a7146102575780638e7ea5b2146102da578063a15148d1146102f8575b600080fd5b6100cf600480360360208110156100b957600080fd5b81019080803590602001909291905050506105d5565b005b6100fd600480360360208110156100e757600080fd5b8101908080359060200190929190505050610767565b60405180806020018581526020018060200180602001848103845288818151815260200191508051906020019080838360005b8381101561014b578082015181840152602081019050610130565b50505050905090810190601f1680156101785780820380516001836020036101000a031916815260200191505b50848103835286818151815260200191508051906020019080838360005b838110156101b1578082015181840152602081019050610196565b50505050905090810190601f1680156101de5780820380516001836020036101000a031916815260200191505b50848103825285818151815260200191508051906020019080838360005b838110156102175780820151818401526020810190506101fc565b50505050905090810190601f1680156102445780820380516001836020036101000a031916815260200191505b5097505050505050505060405180910390f35b61025f61096f565b6040518080602001828103825283818151815260200191508051906020019080838360005b8381101561029f578082015181840152602081019050610284565b50505050905090810190601f1680156102cc5780820380516001836020036101000a031916815260200191505b509250505060405180910390f35b6102e2610a0d565b6040518082815260200191505060405180910390f35b610300610a8a565b6040518082815260200191505060405180910390f35b6103586004803603602081101561032c57600080fd5b81019080803573ffffffffffffffffffffffffffffffffffffffff169060200190929190505050610a90565b6040518084151581526020018315158152602001828152602001935050505060405180910390f35b6105676004803603606081101561039657600080fd5b81019080803590602001906401000000008111156103b357600080fd5b8201836020820111156103c557600080fd5b803590602001918460018302840111640100000000831117156103e757600080fd5b91908080601f016020809104026020016040519081016040528093929190818152602001838380828437600081840152601f19601f8201169050808301925050505050505091929192908035906020019064010000000081111561044a57600080fd5b82018360208201111561045c57600080fd5b8035906020019184600183028401116401000000008311171561047e57600080fd5b91908080601f016020809104026020016040519081016040528093929190818152602001838380828437600081840152601f19601f820116905080830192505050505050509192919290803590602001906401000000008111156104e157600080fd5b8201836020820111156104f357600080fd5b8035906020019184600183028401116401000000008311171561051557600080fd5b91908080601f016020809104026020016040519081016040528093929190818152602001838380828437600081840152601f19601f820116905080830192505050505050509192919290505050610ad4565b005b6105ab6004803603602081101561057f57600080fd5b81019080803573ffffffffffffffffffffffffffffffffffffffff169060200190929190505050610be1565b005b6105b5610c97565b6040518082815260200191505060405180910390f35b6105d3610ca4565b005b60001515600360003373ffffffffffffffffffffffffffffffffffffffff1673ffffffffffffffffffffffffffffffffffffffff16815260200190815260200160002060000160019054906101000a900460ff1615151461063557600080fd5b60011515600360003373ffffffffffffffffffffffffffffffffffffffff1673ffffffffffffffffffffffffffffffffffffffff16815260200190815260200160002060000160009054906101000a900460ff1615151461069557600080fd5b80600360003373ffffffffffffffffffffffffffffffffffffffff1673ffffffffffffffffffffffffffffffffffffffff168152602001908152602001600020600101819055506001600360003373ffffffffffffffffffffffffffffffffffffffff1673ffffffffffffffffffffffffffffffffffffffff16815260200190815260200160002060000160016101000a81548160ff02191690831515021790555060016004828154811061074657fe5b90600052602060002090600402016001016000828254019250508190555050565b6004818154811061077757600080fd5b9060005260206000209060040201600091509050806000018054600181600116156101000203166002900480601f0160208091040260200160405190810160405280929190818152602001828054600181600116156101000203166002900480156108235780601f106107f857610100808354040283529160200191610823565b820191906000526020600020905b81548152906001019060200180831161080657829003601f168201915b505050505090806001015490806002018054600181600116156101000203166002900480601f0160208091040260200160405190810160405280929190818152602001828054600181600116156101000203166002900480156108c75780601f1061089c576101008083540402835291602001916108c7565b820191906000526020600020905b8154815290600101906020018083116108aa57829003601f168201915b505050505090806003018054600181600116156101000203166002900480601f0160208091040260200160405190810160405280929190818152602001828054600181600116156101000203166002900480156109655780601f1061093a57610100808354040283529160200191610965565b820191906000526020600020905b81548152906001019060200180831161094857829003601f168201915b5050505050905084565b60018054600181600116156101000203166002900480601f016020809104026020016040519081016040528092919081815260200182805460018160011615610100020316600290048015610a055780601f106109da57610100808354040283529160200191610a05565b820191906000526020600020905b8154815290600101906020018083116109e857829003601f168201915b505050505081565b6000806000905060005b600480549050811015610a80578160048281548110610a3257fe5b9060005260206000209060040201600101541115610a735760048181548110610a5757fe5b9060005260206000209060040201600101549150806002819055505b8080600101915050610a17565b5060025491505090565b60025481565b60036020528060005260406000206000915090508060000160009054906101000a900460ff16908060000160019054906101000a900460ff16908060010154905083565b60008054906101000a900473ffffffffffffffffffffffffffffffffffffffff1673ffffffffffffffffffffffffffffffffffffffff163373ffffffffffffffffffffffffffffffffffffffff1614610b2c57600080fd5b60046040518060800160405280858152602001600081526020018481526020018381525090806001815401808255809150506001900390600052602060002090600402016000909190919091506000820151816000019080519060200190610b95929190610d35565b50602082015181600101556040820151816002019080519060200190610bbc929190610d35565b506060820151816003019080519060200190610bd9929190610d35565b505050505050565b60008054906101000a900473ffffffffffffffffffffffffffffffffffffffff1673ffffffffffffffffffffffffffffffffffffffff163373ffffffffffffffffffffffffffffffffffffffff1614610c3957600080fd5b6001600360008373ffffffffffffffffffffffffffffffffffffffff1673ffffffffffffffffffffffffffffffffffffffff16815260200190815260200160002060000160006101000a81548160ff02191690831515021790555050565b6000600480549050905090565b60008054906101000a900473ffffffffffffffffffffffffffffffffffffffff1673ffffffffffffffffffffffffffffffffffffffff163373ffffffffffffffffffffffffffffffffffffffff1614610cfc57600080fd5b60008054906101000a900473ffffffffffffffffffffffffffffffffffffffff1673ffffffffffffffffffffffffffffffffffffffff16ff5b828054600181600116156101000203166002900490600052602060002090601f016020900481019282610d6b5760008555610db2565b82601f10610d8457805160ff1916838001178555610db2565b82800160010185558215610db2579182015b82811115610db1578251825591602001919060010190610d96565b5b509050610dbf9190610dc3565b5090565b5b80821115610ddc576000816000905550600101610dc4565b509056fea26469706673582212202db4a6ad4d8582be971a4e1bff8e308a86d76c825c470eef6505aa3f65484ec064736f6c63430007050033",
    "immutableReferences": {},
    "source": "pragma solidity ^0.7.5;\r\n\r\ncontract Election {\r\n    \r\n    struct Candidate{\r\n        string name;\r\n        uint voteCount;  \r\n        string partyName;\r\n        string Constituency;\r\n    }\r\n    \r\n    struct Voter {\r\n        bool isAuthorized;\r\n        bool voted;\r\n        uint vote;  //whom to vote\r\n    }\r\n    \r\n    address payable owner;\r\n    string public electionName;\r\n    uint public winnerCandidate;\r\n    \r\n    mapping(address => Voter) public voters; \r\n    Candidate[] public candidates;\r\n    \r\n    modifier ownerOnly(){\r\n        require(msg.sender == owner);\r\n        _;      //remaining body of addCandidate\r\n    }\r\n    \r\n    constructor(string memory _electionName) {\r\n        owner = msg.sender;\r\n        electionName = _electionName;\r\n    }\r\n    \r\n    function addCandidate(string memory _name, string memory _partyName, string memory _constituency) ownerOnly public {\r\n        candidates.push((Candidate(_name, 0, _partyName, _constituency)));\r\n    }\r\n    \r\n    function getNumCandidate() public view returns(uint) { \r\n        return candidates.length;\r\n    }\r\n    \r\n    function authorize(address _voter) ownerOnly public {\r\n        voters[_voter].isAuthorized = true;\r\n    }\r\n    \r\n    function vote(uint _candidateIndex) public {\r\n        require(voters[msg.sender].voted == false);\r\n        require(voters[msg.sender].isAuthorized == true);\r\n        \r\n        voters[msg.sender].vote = _candidateIndex;\r\n        voters[msg.sender].voted = true;\r\n        \r\n        candidates[_candidateIndex].voteCount += 1;\r\n    }\r\n    \r\n    //update winnerCandidate \r\n    function getWinner() public returns(uint) {\r\n        uint max = 0;\r\n        for(uint i = 0; i < candidates.length; i++)\r\n            if(candidates[i].voteCount > max) \r\n            {\r\n                max = candidates[i].voteCount;\r\n                winnerCandidate = i;\r\n            }\r\n         return winnerCandidate;\r\n    }\r\n    \r\n    function end() ownerOnly public {\r\n        selfdestruct(owner);\r\n    }\r\n    \r\n}",
    "sourcePath": "C:\\ElectionApp\\contracts\\Election.sol",
    "compiler": {
        "name": "solc",
        "version": "0.7.5+commit.eb77ed08.Emscripten.clang"
    },
    "schemaVersion": "3.4.3",
    "updatedAt": "2021-09-20T05:15:11.366Z",
    "networkType": "ethereum",
    "devdoc": {
        "kind": "dev",
        "methods": {},
        "version": 1
    },
    "userdoc": {
        "kind": "user",
        "methods": {},
        "version": 1
    }
}